:03000000020800F3
:0C080000787FE4F6D8FD758108020847F7
:03093400010805B2
:08092C0012091A1208D580FB24
:10091A00758911758CDB758AFFC28DD28CD2A9D2EA
:02092A00AF22FA
:03000B0002088C5C
:10088C00C0E0C0F0C083C082C0D075D000C000C032
:10089C0001C002C003C004C005C006C007D28075E9
:1008AC008CDB758AFFC28DAF08120902C280D0079B
:1008BC00D006D005D004D003D002D001D000D0D0C7
:0908CC00D082D083D0F0D0E032DC
:10090200E4FEEEC39F5010758DFC758B67C28FD2CB
:070912008E308FFD0E80EB1B
:0109190022BB
:1008D5002081130508D3E5089408748094804003AB
:1008E5007508083081FD2082131508C3E5089401B9
:0D08F5007480948050037508013082FD224C
:10080C0002092CE493A3F8E493A34003F68001F2CD
:10081C0008DFF48029E493A3F85407240CC8C333ED
:10082C00C4540F4420C8834004F456800146F6DFBC
:10083C00E4800B0102040810204080900934E47E0F
:10084C00019360BCA3FF543F30E509541FFEE493B1
:10085C00A360010ECF54C025E060A840B8E493A378
:10086C00FAE493A3F8E493A3C8C582C8CAC583CAA3
:10087C00F0A3C8C582C8CAC583CADFE9DEE780BE5B
:0109370000BF
:00000001FF
