:03000000020D14DA
:0C0D1400787FE4F6D8FD758127020B3FC4
:100B3F00120B967B007A0079211209FC7F80120C30
:100B4F0098AF23120CF57F3A120CB1AF22120CF5AD
:100B5F007F3A120CB1AF21120CF57F20120CB17F2E
:100B6F00C0120C98AF25120CF57F2F120CB1AF26C7
:100B7F00120CF57F2F120CB1AF27120CF5120D20AE
:070B8F007F14120CCA80ACB8
:100CCA00E4FEEEC39F5010758C4B758AFDC28DD21F
:070CDA008C308DFD0E80EB54
:010CE10022F0
:0A0D20002080063080FD12097022C9
:10097000E4F514FB7A0079151209FC7F0E120C982D
:10098000E51414601914601F14602514602B1460A2
:1009900031240570397F80120C98AF17802B7F832C
:1009A000120C98AF1680227F86120C98AF15801912
:1009B0007FC0120C98AF1980107FC3120C98AF1A29
:1009C00080077FC6120C98AF1B120CF5800E7F0CAF
:1009D000120C987B007A007915020AE02081083019
:1009E00081FD7F01120A742082083082FDE4FF122B
:0C09F0000A7420808B3080FD0514808488
:100A74008F08E514602414601624FE602D14603A77
:100A8400146047240370547B007A00791580067B38
:100A9400007A007916750D3C80097B007A0079177D
:100AA400750D1885080EE4FD802E7B007A007919F7
:100AB400750D2085080E7D01801E7B007A00791A51
:100AC400750D0D85080E7D01800E7B007A00791B63
:0C0AD400750D6485080E7D01120C49228E
:080C49008D0C8B098A0A890B4E
:100C51001208F6FF120D05E50E640170030F800105
:100C61001FEFC3950D4002AF0C120CE2AB09AA0AAB
:060C7100A90BEF02093C93
:0E0D0500EFC4540F75F00AA4FEEF540F2EFF3A
:010D130022BD
:100CE200EF75F00A84C454F0FEEF75F00A84E5F063
:020CF2004EFFB3
:010CF40022DD
:1009FC008B088A09890A120D347FD0120C22E4FF6D
:100A0C00120C22120D3D120D347FD1120C227F01DB
:100A1C00120BE7AB08AA09A90AEF12093C7F0112D5
:100A2C000BE7900001120BDB900002120BDBAB0802
:100A3C00AA09A90A900003120BE1AB08AA09A90A9A
:100A4C00900004120BE1AB08AA09A90A900005EF6B
:100A5C0012094EE4FF120BE7AB08AA09A90A900091
:080A6C0006EF12094E020D3DD8
:100AE0008B088A09890A120D347FD0120C22E4FF88
:100AF000120C22AB08AA09A90A1208F6FF120C224E
:100B0000900001120C18900002120C18AB08AA09F0
:100B1000A90A900003120C1EAB08AA09A90A9000AA
:100B200004120C1EAB08AA09A90A900005120C1E9B
:0F0B3000AB08AA09A90A900006120C1E020D3D7F
:090D3400D2B7D2B6C2B7C2B62292
:0A0C1800AB08AA09A90A12090FFF90
:100C22008F20E4FFEFD39407748094805011A207C1
:100C320092B7D2B6C2B6E52025E0F5200F80E520B6
:060C4200B7FDD2B6C2B6F8
:010C48002289
:0C0BDB00AB08AA09A90AEF12094E7F011D
:100BE700A2B79200E4FEEED394077480948050116C
:100BF700E52025E0F520A2B79200D2B6C2B60E8056
:100C0700E5EF64017005120D468003120D4FAF200A
:010C170022BA
:090D3D00C2B7D2B6D2B7C2B62289
:090D4600C2B7D2B6C2B6D2B72280
:090D4F00D2B7D2B6C2B6D2B62268
:0A0D2A000038000C000100060080F4
:100B9600780A7C007D007BFF7A0D792A7E007F0A29
:100BA6001208D0E4F508F509E50925E0240AF80855
:100BB600E6FF120C98E4FFFE0FBF00010EBE04F81C
:100BC600BFB0F50509E50970020508D39404E508E8
:040BD600940040D473
:010BDA0022F8
:100C98008F90C2A0C2A1D2A2E4FFFE0FBF00010E36
:080CA800BE04F8BFB0F5C2A2C2
:010CB0002221
:100CB1008F90D2A0C2A1D2A2E4FFFE0FBF00010E0D
:080CC100BE04F8BFB0F5C2A2A9
:010CC9002208
:100C77001208F6FF601A120CB1E4FFFE0FBF000165
:100C87000EBE04F8BFB0F5740129F9E43AFA80E022
:010C9700223A
:100CF5008F08120D58120CB1AF08120D60020CB11D
:080D5800EFC4540F2430FF2208
:070D6000EF540F2430FF22C5
:10080000E709F608DFFA8046E709F208DFFA803EDA
:1008100088828C83E709F0A3DFFA8032E309F608C7
:10082000DFFA8078E309F208DFFA807088828C832F
:10083000E309F0A3DFFA806489828A83E0A3F608E3
:10084000DFFA805889828A83E0A3F208DFFA804CBD
:1008500080D280FA80C680D4806980F28033801094
:1008600080A680EA809A80A880DA80E280CA8033FD
:1008700089828A83ECFAE493A3C8C582C8CCC58375
:10088000CCF0A3C8C582C8CCC583CCDFE9DEE78045
:100890000D89828A83E493A3F608DFF9ECFAA9F0C4
:1008A000EDFB2289828A83ECFAE0A3C8C582C8CC1A
:1008B000C583CCF0A3C8C582C8CCC583CCDFEADE33
:1008C000E880DB89828A83E493A3F208DFF980CC95
:1008D00088F0EF60010E4E60C388F0ED2402B4048E
:1008E0000050B9F582EB2402B4040050AF23234535
:0608F00082239008507302
:1008F600BB010689828A83E0225002E722BBFE0200
:09090600E32289828A83E4932232
:10090F00BB010CE58229F582E5833AF583E022509D
:10091F0006E92582F8E622BBFE06E92582F8E222E7
:0D092F00E58229F582E5833AF583E4932201
:10093C00BB010689828A83F0225002F722BBFE019A
:02094C00F32294
:10094E00F8BB010DE58229F582E5833AF583E8F0DF
:10095E00225006E92582C8F622BBFE05E92582C88B
:02096E00F22273
:00000001FF
